{
  "contractName": "TheProphecy",
  "abi": [
    {
      "constant": true,
      "inputs": [],
      "name": "nostradamusAddress",
      "outputs": [
        {
          "name": "",
          "type": "address"
        }
      ],
      "payable": false,
      "stateMutability": "view",
      "type": "function"
    },
    {
      "inputs": [
        {
          "name": "_nostradamusAddress",
          "type": "address"
        }
      ],
      "payable": false,
      "stateMutability": "nonpayable",
      "type": "constructor"
    },
    {
      "anonymous": false,
      "inputs": [
        {
          "indexed": true,
          "name": "prophet",
          "type": "address"
        },
        {
          "indexed": false,
          "name": "exactWords",
          "type": "bytes32"
        },
        {
          "indexed": false,
          "name": "braggingRights",
          "type": "bytes32"
        }
      ],
      "name": "LogProphesy",
      "type": "event"
    },
    {
      "constant": true,
      "inputs": [],
      "name": "predictCorrectWord",
      "outputs": [
        {
          "name": "my_exact",
          "type": "bytes32"
        }
      ],
      "payable": false,
      "stateMutability": "view",
      "type": "function"
    },
    {
      "constant": false,
      "inputs": [
        {
          "name": "aFewWords",
          "type": "string"
        }
      ],
      "name": "prophesy",
      "outputs": [
        {
          "name": "success",
          "type": "bool"
        }
      ],
      "payable": false,
      "stateMutability": "nonpayable",
      "type": "function"
    }
  ],
  "bytecode": "0x608060405234801561001057600080fd5b506040516020806105358339810180604052810190808051906020019092919050505080600160006101000a81548173ffffffffffffffffffffffffffffffffffffffff021916908373ffffffffffffffffffffffffffffffffffffffff160217905550506104b1806100846000396000f300608060405260043610610057576000357c0100000000000000000000000000000000000000000000000000000000900463ffffffff1680631fc220ba1461005c5780634d253c521461008f578063dd2f271f146100e6575b600080fd5b34801561006857600080fd5b50610071610167565b60405180826000191660001916815260200191505060405180910390f35b34801561009b57600080fd5b506100a46102b6565b604051808273ffffffffffffffffffffffffffffffffffffffff1673ffffffffffffffffffffffffffffffffffffffff16815260200191505060405180910390f35b3480156100f257600080fd5b5061014d600480360381019080803590602001908201803590602001908080601f01602080910402602001604051908101604052809392919081815260200183838082843782019150505050505091929192905050506102dc565b604051808215151515815260200191505060405180910390f35b6000804340905030438242600160009054906101000a900473ffffffffffffffffffffffffffffffffffffffff16604051602001808673ffffffffffffffffffffffffffffffffffffffff1673ffffffffffffffffffffffffffffffffffffffff166c0100000000000000000000000002815260140185815260200184600019166000191681526020018381526020018273ffffffffffffffffffffffffffffffffffffffff1673ffffffffffffffffffffffffffffffffffffffff166c01000000000000000000000000028152601401955050505050506040516020818303038152906040526040518082805190602001908083835b602083101515610283578051825260208201915060208101905060208303925061025e565b6001836020036101000a038019825116818451168082178552505050505050905001915050604051809103902091505090565b600160009054906101000a900473ffffffffffffffffffffffffffffffffffffffff1681565b6000806000600160009054906101000a900473ffffffffffffffffffffffffffffffffffffffff166000806101000a81548173ffffffffffffffffffffffffffffffffffffffff021916908373ffffffffffffffffffffffffffffffffffffffff16021790555060208401519150610352610167565b90506000809054906101000a900473ffffffffffffffffffffffffffffffffffffffff1673ffffffffffffffffffffffffffffffffffffffff1663551336c582846040518363ffffffff167c0100000000000000000000000000000000000000000000000000000000028152600401808360001916600019168152602001826000191660001916815260200192505050600060405180830381600087803b1580156103fc57600080fd5b505af1158015610410573d6000803e3d6000fd5b505050503373ffffffffffffffffffffffffffffffffffffffff167fb2efec1fff92a6357356b28d9de8f64768fb554fee8bd71a50b6836d1c64a119828460405180836000191660001916815260200182600019166000191681526020019250505060405180910390a26001925050509190505600a165627a7a72305820e0a4e772c0851997993da26576f5f06266751d54c673f2338de611c1025fd7020029",
  "source": "//B9lab ETH-SUB Certified Online Ethereum Developer Course\n//Challenge  >>> Nostradamus <<<\n//\n//Last update: 12.10.2020\n\npragma solidity 0.4.24;\n\n\n//Interface of deployed contract\ncontract Nostradamus {\n    function prophecise(bytes32 exact, bytes32 braggingRights) public;\n    function theWord() public view returns(bytes32 exact);\n}\n\n\n//Executor contract\ncontract TheProphecy {\n    Nostradamus internal michel;\n    address public nostradamusAddress;\n\n    event LogProphesy(address indexed prophet, bytes32 exactWords, bytes32 braggingRights);\n\n    constructor(address _nostradamusAddress) public {\n        nostradamusAddress = _nostradamusAddress;\n    }\n\n    function predictCorrectWord() public view returns(bytes32 my_exact) {\n        bytes32 blockHash = blockhash(block.number);\n\n        return keccak256(abi.encodePacked(address(this), block.number, blockHash, block.timestamp, nostradamusAddress));\n    }\n\n    function prophesy(string memory aFewWords) public returns(bool success) {\n        michel = Nostradamus(nostradamusAddress);\n        bytes32 verse;\n        bytes32 my_exact;\n\n        assembly{\n            verse := mload(add(aFewWords, 32))\n        }\n\n        my_exact = predictCorrectWord();\n        michel.prophecise(my_exact, verse);\n\n        emit LogProphesy(msg.sender, my_exact, verse);\n\n        return true;\n    }\n}\n",
  "sourcePath": "/home/niels/ITstuff/ETH-SUB/challenge_Nostradamus-react/contracts/TheProphecy.sol",
  "compiler": {
    "name": "solc",
    "version": "0.4.24+commit.e67f0147.Emscripten.clang"
  },
  "schemaVersion": "3.2.5",
  "updatedAt": "2020-10-23T21:13:16.988Z",
  "networkType": "ethereum",
  "devdoc": {
    "methods": {}
  },
  "userdoc": {
    "methods": {}
  }
}